:100000009FC30000CCC30000CAC30000C8C30000E7
:10001000C6C300000C94F327C2C30000C0C3000095
:10002000BEC30000BCC30000BAC30000B8C30000D8
:10003000B6C30000B4C30000B2C30000B0C30000E8
:100040000C94C927ACC300000C944F29A8C300002E
:10005000A6C30000A4C30000A2C30000A0C3000008
:100060009EC300009CC300009AC3000098C3000018
:1000700096C3000094C300000C94AF2990C3000005
:100080008EC300008CC300008AC30000C40FC50FDC
:10009000C70FC90FCB0FCD0FCF0FC01EC51E9D1EA2
:1000A000A11EA51EAA1EAF1EB41EB81EBC1E272F61
:1000B0002E2F352F182F3C2F432F4D2F582F0763EE
:1000C0004236B79BD8A71A39685618AEBAAB558CCA
:1000D0001D3CB7CC5763BD6DEDFD753EF617723113
:1000E000BF000000803F08000000BE922449123E7D
:1000F000ABAAAA2ABECDCCCC4C3E00000080BEAB41
:10010000AAAAAA3E00000000BF000000803F000035
:10011000000000084178D3BB4387D1133D190E3C42
:10012000C3BD4282AD2B3E68EC8276BED98FE1A979
:100130003E4C80EFFFBE01C4FF7F3F000000000087
:100140006E616E00696E660000000000003E5B4F4D
:100150005B3E3E6B4F6B3E1C3E7C3E1C183C7E3C27
:10016000181C577D571C1C5E7F5E1C00183C180035
:10017000FFE7C3E7FF0018241800FFE7DBE7FF30C5
:10018000483A060E2629792926407F050507407F33
:1001900005253F5A3CE73C5A7F3E1C1C08081C1CA6
:1001A0003E7F14227F22145F5F005F5F06097F019C
:1001B0007F006689956A606060606094A2FFA29487
:1001C00008047E040810207E201008082A1C080855
:1001D0001C2A08081E101010100C1E0C1E0C3038A3
:1001E0003E3830060E3E0E06000000000000005FA4
:1001F00000000007000700147F147F14242A7F2AC0
:100200001223130864623649562050000807030081
:10021000001C2241000041221C002A1C7F1C2A08CD
:10022000083E080800807030000808080808000030
:1002300060600020100804023E5149453E00427FA4
:10024000400072494949462141494D331814127FF3
:100250001027454545393C4A494931412111090793
:100260003649494936464949291E00001400000014
:1002700040340000000814224114141414140041E6
:1002800022140802015909063E415D594E7C1211A3
:10029000127C7F494949363E414141227F414141DB
:1002A0003E7F494949417F090909013E4141517356
:1002B0007F0808087F00417F41002040413F017FC7
:1002C000081422417F404040407F021C027F7F048F
:1002D00008107F3E4141413E7F090909063E4151D8
:1002E000215E7F09192946264949493203017F01C8
:1002F000033F4040403F1F2040201F3F4038403FC9
:10030000631408146303047804036159494D4300DE
:100310007F4141410204081020004141417F040215
:1003200001020440404040400003070800205454AC
:1003300078407F284444383844444428384444288A
:100340007F385454541800087E090218A4A49C78DD
:100350007F0804047800447D40002040403D007F39
:100360001028440000417F40007C047804787C0819
:100370000404783844444438FC18242418182424ED
:1003800018FC7C08040408485454542404043F44D2
:10039000243C4040207C1C2040201C3C4030403C01
:1003A00044281028444C9090907C4464544C440061
:1003B00008364100000077000000413608000201C5
:1003C0000204023C2623263C1EA1A161123A4040B1
:1003D000207A38545455592155557941225454782E
:1003E00042215554784020545579400C1E527212C7
:1003F0003955555559395454545939555454580050
:1004000000457C410002457D420001457C407D1253
:1004100011127DF0282528F07C54554500205454B5
:100420007C547C0A097F4932494949323A44444460
:100430003A324A4848303A4141217A3A424020789B
:10044000009DA0A07D3D4242423D3D4040403D3C9C
:1004500024FF2424487E4943662B2FFC2F2BFF09C1
:1004600029F620C0887E09032054547941000044B5
:100470007D413048484A32384040227A007A0A0AA0
:10048000727D0D19317D2629292F28262929292613
:1004900030484D4020380808080808080808382F58
:1004A00010C8ACBA2F102834FA00007B00000814E2
:1004B0002A142222142A1408AA005500AAAA55AA0E
:1004C00055AA000000FF00101010FF00141414FFC4
:1004D000001010FF00FF1010F010F0141414FC00B6
:1004E0001414F700FF0000FF00FF1414F404FC14C0
:1004F0001417101F10101F101F1414141F001010B9
:1005000010F0000000001F101010101F101010102D
:10051000F010000000FF101010101010101010FF4D
:1005200010000000FF140000FF00FF00001F101764
:100530000000FC04F414141710171414F404F4004D
:1005400000FF00F714141414141414F700F7141413
:1005500014171410101F101F141414F4141010F09A
:1005600010F000001F101F0000001F14000000FC0E
:10057000140000F010F01010FF10FF141414FF14FA
:100580001010101F00000000F010FFFFFFFFFFF031
:10059000F0F0F0F0FFFFFF0000000000FFFF0F0F82
:1005A0000F0F0F3844443844FC4A4A4A347E020252
:1005B0000606027E027E0263554941633844443C8C
:1005C00004407E201E2006027E020299A5E7A5991E
:1005D0001C2A492A1C4C7201724C304A4D4D303055
:1005E00048784830BC625A463D3E494949007E0140
:1005F00001017E2A2A2A2A2A44445F444440514A5F
:10060000444040444A51400000FF0103E080FF00A5
:100610000008086B6B083612362436060F090F06E1
:10062000000018180000001010003040FF01010009
:100630001F01011E00191D1712003C3C3C3C00111B
:10064000150A0000407A10F35A00A0724E180900F3
:1006500010A5D4E80000E87648170000E40B540227
:100660000000CA9A3B000000E1F505000080969862
:1006700000000040420F000000A0860100000010B2
:100680002700000000E803000000006400000000F4
:10069000000A00000000000100000000002C76D8D5
:1006A00088DC674F0823DFC1DFAE59E1B1B796E5BB
:1006B000E3E453C63AE651997696E8E6C28426EB1F
:1006C000898C9B62ED407C6FFCEFBC9C9F40F2BA32
:1006D000A56FA5F490055A2AF75C936B6CF9676DCA
:1006E000C11BFCE0E40D47FEF520E6B500D0ED901F
:1006F0002E0300943577050080841E080000204EEC
:100700000A000000C80C333333330F986E12831184
:1007100041EF8D2114893BE65516CFFEE6DB18D15B
:10072000844B381BF77C1D901DA4BBE4242032842D
:10073000725E228100C9F124ECA1E53D27007E2FE5
:1007400011241FBECFEFD0E1DEBFCDBF16E0A0E089
:10075000B1E0E4E6FEE600E00BBF02C007900D92B8
:10076000A432B107D9F729E0A4E2B6E001C01D9296
:10077000AC3CB207E1F717E0C0E4D7E000E006C008
:1007800022970109FE010BBF0E947A31CE33D107B7
:1007900080E00807A9F70E942C2A0C94303730CC4F
:1007A0002F923F924F925F926F927F928F929F9281
:1007B000AF92BF92CF92DF92EF92FF920F931F936F
:1007C000CF93DF93CDB7DEB763970FB6F894DEBF54
:1007D0000FBECDBF7C011B016A01FC01178216828E
:1007E000838181FF66C3BE016F5F7F4F4B01F701BD
:1007F0009381F10193FD859193FF81911F018823DE
:1008000009F453C3853239F493FD859193FF8191A7
:100810001F01853239F4B70190E00E943836560145
:100820006501E5CF10E0512C20E02032A0F48B329E
:1008300069F030F4803259F0833269F420612CC0C1
:100840008D3239F0803339F4216026C02260246073
:1008500023C0286021C027FD27C030ED380F3A3073
:1008600078F426FF06C0FAE01F9F300D1124132FE5
:1008700013C06AE0569E300D1124532E20620CC026
:100880008E3221F426FD11C3206406C08C3611F48B
:10089000206802C0883641F4F10193FD859193FFF1
:1008A00081911F018111C1CF9BEB980F933018F4F8
:1008B0002061805E06C09BE9980F933008F0AAC1C2
:1008C0002F7E26FF16E02F73722E853621F4F22F2D
:1008D000F0647F2E08C0863621F4622F6068762E81
:1008E00002C01111115077FE07C01C3348F4442494
:1008F0004394410E27E00BC0183030F4212F06C07E
:1009000027E04CE3442E03C027E017E0412C5601BA
:1009100074E0A70EB11CF601608171818281938120
:10092000042DA4010E940D356C01098100FF02C055
:1009300003FF06C071FC07C072FC08C0612C08C030
:100940003DE2632E05C02BE2622E02C090E2692ECA
:10095000802F8C7099F1662011F084E001C083E053
:10096000851510F0512C0BC0581A73FC08C0B70144
:1009700080E290E00E9438365A94C9F7F3CF66209F
:1009800029F0B701862D90E00E94383603FD03C0A0
:1009900004E411E002C000E411E0F72DF0717F2EB5
:1009A000F8018491882309F476C271108052B7014E
:1009B00090E00E9438360F5F1F4FF2CF77FE0FC0D6
:1009C0004C0C04FF04C08A81813309F44A94141446
:1009D00074F5F8E0F41578F588E0482E2CC076FC24
:1009E0002AC0812F90E08C159D059CF06CEFC616F7
:1009F0006FEFD60674F0772D7068772E0AC0E2E0AC
:100A0000F0E0EC0FFD1FE10FF11D8081803319F440
:100A100011501111F4CF77FE0EC044244394410EBF
:100A2000812F90E0C816D9062CF41C1904C0442468
:100A3000439401C010E077FE07C01C141D043CF471
:100A400096012F5F3F4F05C025E030E002C021E056
:100A500030E0662011F02F5F3F4F112331F0412F1E
:100A600050E04F5F5F4F240F351F452D50E0241796
:100A7000350714F4521A01C0512C872D897049F49E
:100A8000552039F0B70180E290E00E9438365A9440
:100A9000F7CF662029F0B701862D90E00E94383606
:100AA00073FC09C0552039F0B70180E390E00E9443
:100AB00038365A94F7CF77FE5FC09C2D8D2DD7FE28
:100AC00002C090E080E0692E782E40E050E0C60140
:100AD000841991099D878C87960126193709280D5D
:100AE000391D812F90E0EE27FF27E81BF90BFF87C8
:100AF000EE87FFEF6F167F0669F4B7018EE290E094
:100B00002B8B3A8B488B598B0E94383659894889F0
:100B10003A892B89C614D70454F06C857D856615F7
:100B200077052CF4F901E40FF51F818101C080E302
:100B300071E0671A71084F5F5F4FEE85FF856E1693
:100B40007F066CF0B70190E02B8B3A8B488B598B6A
:100B50000E9438362B893A8948895989CACF6C1442
:100B60007D0439F49A81963318F4953311F404FF17
:100B700081E3B70190E04BC08A81813309F00F7E99
:100B8000B70190E00E943836111105C074FE18C0FC
:100B900085E490E017C0B7018EE290E00E943836FD
:100BA00082E066246394680EF401E80FF11D8081F1
:100BB000B70190E00E943836115041F3862DF1CFF5
:100BC00085E690E0B7010E943836D7FC05C0C11415
:100BD000D10439F404FF05C0D194C194D1088DE249
:100BE00001C08BE2B70190E00E94383680E36AE0F2
:100BF000C616D1042CF08F5FFAE0CF1AD108F7CFD8
:100C0000B70190E00E943836B701C601C0960E9435
:100C1000383641C1833631F0833779F0833509F0B6
:100C200058C021C0560172E0A70EB11CF6018081A8
:100C3000898301E010E0640114C05601F2E0AF0EB8
:100C4000B11CF601C080D18026FF03C0612F70E087
:100C500002C06FEF7FEFC6012B8B0E9413368C0111
:100C60002B892F7715C05601F2E0AF0EB11CF601AB
:100C7000C080D18026FF03C0612F70E002C06FEFFB
:100C80007FEFC6012B8B0E94E5358C012B892068F4
:100C9000722E23FD1AC0852D90E008171907A8F4BD
:100CA000B70180E290E00E9438365A94F4CFF60102
:100CB00077FC859177FE81916F01B70190E00E94EA
:100CC000383651105A94015011090115110579F760
:100CD000E2C0843611F0893651F5560127FF09C06C
:100CE000F4E0AF0EB11CF6016081718182819381C5
:100CF0000AC0F2E0AF0EB11CF60160817181882755
:100D000077FD8095982F022F0F7697FF08C090955A
:100D10008095709561957F4F8F4F9F4F00682AE0B7
:100D200030E0A4010E94D236C82EC8183EC0022F5F
:100D3000853721F40F7E2AE030E01DC0097F8F3611
:100D400091F018F4883559F0B0C0803719F0883721
:100D500011F0ABC0006104FF09C0046007C024FFAC
:100D600008C0066006C028E030E005C020E130E0A1
:100D700002C020E132E0560107FF09C0F4E0AF0EE7
:100D8000B11CF601608171818281938108C0F2E01B
:100D9000AF0EB11CF6016081718180E090E0A4018A
:100DA0000E94D236C82EC8180F7706FF0BC0202F1E
:100DB0002E7FC11650F404FF0AC002FD08C0202F88
:100DC0002E7E05C0DC2C202F03C0DC2C01C0D12ED0
:100DD00024FF0DC0FE01EC0DF11D8081803311F464
:100DE000297E09C022FF06C0D394D39404C0822F69
:100DF000867809F0D39423FD13C020FF06C01C2D74
:100E0000D51418F4150D1D19D52CD51468F4B70197
:100E100080E290E02B8B0E943836D3942B89F5CF5B
:100E2000D51410F45D1801C0512C24FF12C0B70175
:100E300080E390E02B8B0E9438362B8922FF17C06D
:100E400021FF03C088E590E002C088E790E0B70189
:100E50000CC0822F867859F021FD02C080E201C0CB
:100E60008BE227FD8DE2B70190E00E943836C11673
:100E700038F4B70180E390E00E9438361150F7CF84
:100E8000CA94F401EC0DF11D8081B70190E00E943D
:100E90003836C110F5CF552009F4C2CCB70180E235
:100EA00090E00E9438365A94F6CFF70186819781F8
:100EB00002C08FEF9FEF63960FB6F894DEBF0FBEB0
:100EC000CDBFDF91CF911F910F91FF90EF90DF90F9
:100ED000CF90BF90AF909F908F907F906F905F90DA
:100EE0004F903F902F9008953F924F925F926F9254
:100EF0007F928F929F92AF92BF92CF92DF92EF92AA
:100F0000FF920F931F93CF93DF93EC016D872C011A
:100F10003EE0430E511CD2010D900020E9F7CD01B7
:100F200001973C0164187508662399F06130F9F067
:100F30006F3F69F5FCE2AF2EF3E6BF2EACE2CA2E9E
:100F4000A3E6DA2EB8E18B2EB6EC9B2EEFEEFBE794
:100F50001EC09CE2A92E93E6B92E2BEDC22E2EEDDB
:100F6000D22E88248A94982CE4E3F5EA10C01BED75
:100F7000A12E1EEDB12E0CE2C02E03E6D02E882449
:100F80008A94982CE4E3F5EA3324339401C0312C9D
:100F900009851A852F8138854D815E816B817C8121
:100FA0007F01888199810E94CB236B817C814D8157
:100FB0005E812F813885260F371F76018A0188814F
:100FC00099810E9424234D815E816F8178858B8178
:100FD0009C81680F791F09851A85040F151F7501FB
:100FE0009B01888199810E9424236B817C814985A2
:100FF0005A858D819E81480F591F2F813885260F74
:10100000371F8A01888199810E9424234D815E8146
:101010006B817C8109851A85040F151F76019B0160
:10102000888199810E9424232A81832D90E049851B
:101030005A85A8E02A9F40195109112456954795D1
:101040006D817E81460F571F480F591F629E800198
:1010500011243AEF3003B001319F700D1124EF815C
:10106000F8856E0F7F1F76956795EB81FC816E0F7B
:101070007F1F680F791F6201E12CF12C84018881A8
:1010800099810E941E25DF91CF911F910F91FF90B2
:10109000EF90DF90CF90BF90AF909F908F907F9018
:1010A0006F905F904F903F9008956F927F928F92D4
:1010B000AF92CF92DF92EF92FF920F931F93CF9355
:1010C000DF93CDB7DEB73C01EF85F889DC011196DF
:1010D0007C936E9314965C934E93139716963C9361
:1010E0002E93159718961C930E9317971A96FC92A9
:1010F000EE9219971296AC9212971C96FC93EE936F
:101100001B9744E150E0B6010E960E940436682D0C
:10111000C301DF91CF911F910F91FF90EF90DF906E
:10112000CF90AF908F907F906F90DECEFC012585A1
:10113000222321F0213021F460E001C061E0D4CE0F
:101140000895FC0185858F3FC9F0238134816217A2
:101150007307A0F087819085820F931F6817790726
:1011600068F4858196814817590740F021853285BA
:10117000280F391F81E04217530708F080E00895D7
:10118000FC01838594850895AF92BF92CF92DF9240
:10119000EF92FF920F931F93CF93DF93EC019C018B
:1011A000285F3F4FAC014A5F5F4FBC016C5F7F4FD0
:1011B0008A819B810E94AC18882379F18E01065F99
:1011C0001F4FE12CF12C6E0188EFC80ED11CF601E7
:1011D000808190E0E816F906ECF458014E815F81B9
:1011E0006C817D81C801ADDF0E5D1F4F882371F0DA
:1011F000C5019CDFC501DF91CF911F910F91FF9039
:10120000EF90DF90CF90BF90AF90BACFEFEFEE1A94
:10121000FE0ADDCF8FEF9FEF02C080E090E0DF910C
:10122000CF911F910F91FF90EF90DF90CF90BF90E3
:10123000AF9008954F925F926F927F928F92AF928C
:10124000BF92CF92DF92EF92FF920F931F93CF93B3
:10125000DF93EC016B013C012AEF620E711CF3017C
:10126000808181115DC08FEEE82E8BE7F82E00EAB9
:1012700010E020EF30E040E550E060E070E0888171
:1012800099810E94CB23E12CF12C0FEF1FEF22E07C
:1012900048E750E06FEF7FEF888199810E941E251B
:1012A000688179812E01F8EF4F0E511CBB24B39455
:1012B000F201B0821F92BF92812C92E0A92E2EE201
:1012C000C22E21E0D22E3EE1E32EF12C04E610E006
:1012D00024EB30E04AE050E0CE010A96E6DE688179
:1012E0007981F201808191E0980F90839E0142E222
:1012F000849F200D311D1124C9011F9222E02F93DC
:1013000042E3C42E41E0D42E24EB30E042E850E02A
:101310000A96CBDEF301B0820F900F900F900F90E2
:101320009E01285F3F4FAE014A5F5F4FBE016C5F79
:101330007F4F8A819B810E94AC188823B9F18E016E
:10134000065F1F4F412C512C6E01F8EFCF0ED11CC0
:10135000F601808190E04816590644F5F02EB12E32
:101360004E815F816C817D81C801EBDE0E5D1F4F78
:101370008823C1F0F301108261E08F2D9B2DB4DD35
:101380008F2D9B2DDF91CF911F910F91FF90EF90AB
:10139000DF90CF90BF90AF908F907F906F905F90D5
:1013A0004F90EECEFFEF4F1A5F0AD2CF80E090E071
:1013B000DF91CF911F910F91FF90EF90DF90CF9031
:1013C000BF90AF908F907F906F905F904F900895F7
:1013D000CF92DF92EF92FF920F931F93CF93DF9301
:1013E000EC011F920F931F9280EB8F931F928F93AC
:1013F0001F928F931F928F931F928F931F928F93A1
:101400001F922F931F924F931F926F9385E391E04A
:101410009F938F9383E68F938CE28F938FEF8F93BD
:101420008F9382E08F931F921F921F921F92898148
:101430008F9388818F930E94C9258DB79EB781961F
:101440000FB6F8949EBF0FBE8DBF8091F606813017
:1014500091F457E5C52E51E0D52EE12C68EFF62E1C
:101460000FEF1FEF22E040E050E068E770E0888176
:1014700099810E941E25DF91CF911F910F91FF90BE
:10148000EF90DF90CF900895AF92BF92CF92DF920E
:10149000EF92FF920F931F93CF93DF9300D000D072
:1014A000CDB7DEB75C016FEF7FEFFC0180819181EA
:1014B0000E944124ECE5CE2EE1E0DE2EE12CF12C61
:1014C00001E010E021E048E350E06FEF7FEFF5012D
:1014D000808191810E941E25F1E0CF2EF3E0DF2E66
:1014E0000FE110E021E040E450E06FEF7FEFF50105
:1014F000808191810E941E25ABE7CA2EA1E0DA2EE1
:1015000001E010E022E040E850E06FEF7FEFF501EE
:10151000808191810E941E25B9E8CB2EB1E0DB2E9F
:1015200021E048EC50E06FEF7FEFF5018081918181
:101530000E941E2580912D018F9380912C018F9305
:1015400080912B018F9380912A018F9387E991E0FD
:101550009F938F931F921F9288E78F938FE08F93B3
:101560000F931F9280ED8F931FEF1F931F93F50131
:1015700081818F9380818F930E94C92588E00E948A
:10158000841E9F938F931F9284E68F931F9285E60C
:101590008F931F9285E08F9386EA91E09F938F93BC
:1015A0001F921F921F920F930F931F9288ED8F939C
:1015B0001F931F93F50181818F9380818F930E94E8
:1015C000C9250FB6F894DEBF0FBECDBF0E948A2892
:1015D0009F938F937F936F932DEB31E03F932F93E6
:1015E0001F921F921F920F930F931F9220EE2F9323
:1015F0001F931F93F50121812F9320812F936983DE
:101600007A838B839C830E94C9250FB6F894DEBF32
:101610000FBECDBF23E333E343E550E469817A8114
:101620008B819C810E94F23187FF14C075EDC72E1B
:1016300071E0D72EE12CF12C00E018EF21E048EE0C
:1016400050E06FEF7FEFF501808191810E941E25B0
:1016500080E023C085E899E00E94D7199F938F937B
:101660007F936F938DEF91E09F938F931F921F92C3
:101670001F920F930F931F9288EE8F931F931F93C8
:10168000F50181818F9380818F930E94C9250FB6C8
:10169000F894DEBF0FBECDBF81E00F900F900F908A
:1016A0000F90DF91CF911F910F91FF90EF90DF90FE
:1016B000CF90BF90AF9008954F925F926F927F92BC
:1016C0008F92AF92BF92CF92DF92EF92FF920F93E1
:1016D0001F93CF93DF93EC016FEF7FEF88819981A8
:1016E0000E944124E881F98180859185885891097B
:1016F00015E0412E512CB2010E9412319B01205F56
:101700003F4F3E0148EF640E711CD3018C9191E074
:10171000980F9C9302E2B02EAE01B89E400D511D71
:101720001124CA011F9241E04F93812C42E0A42E64
:1017300053E1C52E52E0D52E6EE1E62EF12C08E7DE
:1017400010E04CE350E0BF010A96AFDCE881F9817C
:101750008085918588589109B2010E9412319B01C0
:10176000220F331F225D3F4FD3018C9191E0980FE0
:101770009C93AE01B89E400D511D1124CA011F92C9
:1017800042E04F93ABE1CA2EA2E0DA2E4CE350E0E8
:10179000BF010A968ADCE881F981808591858858A5
:1017A0009109B2010E9412319B01220F331F260FB3
:1017B000371F245B3F4FD3018C9191E0980F9C938E
:1017C000AE01B89E400D511D1124CA011F9243E085
:1017D0004F9343E2C42E42E0D42E4CE350E0BF01CD
:1017E0000A9663DCE881F9818085918588589109A2
:1017F000B2010E941231660F771F660F771F9B019F
:1018000026593F4FD3018C9191E0980F9C93AE01E4
:10181000B89E400D511D1124CA011F9244E04F9300
:101820006CE2C62E62E0D62E4CE350E0BF010A9671
:101830003CDC8DB79EB708960FB6F8949EBF0FBEDE
:101840008DBFDF91CF911F910F91FF90EF90DF90AF
:10185000CF90BF90AF908F907F906F905F904F90A0
:1018600008958F92AF92CF92DF92EF92FF920F93F3
:101870001F93CF93DF93EC016FEF7FEF8881998106
:101880000E94412468817981FE01E850FF4F8081E8
:1018900091E0980F90839E0142E2849F200D311DBC
:1018A0001124C9011F9225E02F93812CE2E0AE2E76
:1018B000F5E3CF2EF2E0DF2EAEE1EA2EF12C08E7C1
:1018C00010E02EE031E04CE350E00A96EEDBBAE3A4
:1018D000CB2EB2E0DB2EEE24EA94FE2C0FE110E0DA
:1018E00021E040E250E068E070E0888199810E9448
:1018F0001E2586E4C82E82E0D82E21E040E450E088
:1019000068E070E0888199810E941E259FE4C92EBD
:1019100092E0D92E21E040E650E068E070E0888156
:1019200099810E941E2528E5C22E22E0D22E0FE0CA
:1019300018E721E040E850E068E070E08881998194
:101940000E941E253DE5C32E32E0D32E00EE13E0AB
:1019500021E040EA50E068E070E0888199810E94CF
:101960001E2541E6C42E42E0D42E21E040EC50E09A
:1019700068E070E0888199810E941E2555E6C52E99
:1019800052E0D52E00E018EF21E040EE50E068E094
:1019900070E0888199810E941E25C750DF4F88E73B
:1019A00088830F900F90DF91CF911F910F91FF903F
:1019B000EF90DF90CF90AF908F9008958F92AF927D
:1019C000CF92DF92EF92FF920F931F93CF93DF930B
:1019D000EC016FEF7FEF888199810E94412468813B
:1019E0007981FE01E850FF4F808191E0980F90834C
:1019F0009E0142E2849F200D311D1124C9011F92D6
:101A000025E02F93812CE2E0AE2EF5E3CF2EF2E01D
:101A1000DF2EAEE1EA2EF12C08E710E02EE031E0F7
:101A20004CE350E00A9641DBB3E7CB2EB2E0DB2E6D
:101A3000E12CF12C01E010E021E040E250E060E018
:101A400070E0888199810E941E2515E1C12E13E066
:101A5000D12E0FE110E022E048E550E068E070E0B0
:101A6000888199810E941E250CE1C02E03E0D02EB2
:101A700000EE13E022E048E950E068E070E0888181
:101A800099810E941E250F900F90DF91CF911F9199
:101A90000F91FF90EF90DF90CF90AF908F900895CF
:101AA0004F925F926F927F928F92AF92BF92CF923E
:101AB000DF92EF92FF920F931F93CF93DF93EC018E
:101AC0006FEF7FEF888199810E9441241F928CE300
:101AD0008F9381E293E09F938F931F921F921F92A7
:101AE00081E08F9382E08F931F9280E28F938FEF3C
:101AF0008F938F9389818F9388818F930E94C925BB
:101B00008EE2C82E83E0D82EE12CF12C01E010E00B
:101B100022E040E350E06FEF7FEF888199810E94DF
:101B20001E258090F706E881F98180859185885B84
:101B3000910925E0422E512CB2010E9412319B01E5
:101B4000205C3F4F3E0148EF640E711CD3018C9125
:101B500091E0980F9C9342E2B42EAE01B89E400DE6
:101B6000511D1124CA011F9246E04F9352E0A52E49
:101B700060E4C62E63E0D62E7EE1E72EF12C08E766
:101B800010E04CE350E0BF010A968FDAE881F9815A
:101B900080859185885B9109B2010E941231660FA0
:101BA000771F9B01225A3F4FD3018C9191E0980FF0
:101BB0009C93AE01B89E400D511D1124CA011F9285
:101BC00047E04F93812CB9E4CB2EB3E0DB2E4CE3FE
:101BD00050E0BF010A9669DAE881F9818085918534
:101BE000885B9109B2010E9412319B01220F331FC1
:101BF000260F371F24583F4FD3018C9191E0980F47
:101C00009C93AE01B89E400D511D1124CA011F9234
:101C100048E04F934CE1C42E43E0D42E4CE350E017
:101C2000BF010A9642DAE881F98180859185885B57
:101C30009109B2010E941231660F771F660F771F5C
:101C40009B0126563F4FD3018C9191E0980F9C93B6
:101C5000AE01B89E400D511D1124CA011F9245E0EE
:101C60004F9365E3C62E62E0D62E4CE350E0BF01F1
:101C70000A961BDA8DB79EB747960FB6F8949EBFAB
:101C80000FBE8DBFDF91CF911F910F91FF90EF900D
:101C9000DF90CF90BF90AF908F907F906F905F90CC
:101CA0004F9008958F92AF92CF92DF92EF92FF9272
:101CB0000F931F93CF93DF93EC016FEF7FEF88813A
:101CC00099810E94412473E5C72E73E0D72EE12C41
:101CD000F12C01E010E022E040E250E06FEF7FEFF6
:101CE000888199810E941E2568817981FE01E850D2
:101CF000FF4F808191E0980F90839E0142E2849F84
:101D0000200D311D1124C9011F9225E02F93812C34
:101D1000E2E0AE2EF5E3CF2EF2E0DF2EAEE1EA2ECA
:101D2000F12C08E710E02EE031E04CE350E00A9699
:101D3000BCD90F900F90DF91CF911F910F91FF9021
:101D4000EF90DF90CF90AF908F9008953F924F9299
:101D50005F926F927F928F929F92AF92BF92CF923B
:101D6000DF92EF92FF920F931F93CF93DF93EC01DB
:101D70006FEF7FEF888199810E9441242E012BEF24
:101D8000420E511CD201ED91FC91E157FF4F808131
:101D9000FE01E850FF4F3F01882309F49DC0B12C9C
:101DA00074E1972EE2E23E2ED201ED90FC90F70115
:101DB000E157FF4F408161E0640FE881F981B4167B
:101DC00008F04CC00B2D10E04EE1B49E90011124A0
:101DD000205F3F4F68015FEFC51AD50A8085918566
:101DE000AEE16A9F801991091124409770E06F5FFE
:101DF0007F4F0E941231C69EC001C79E900DD69E95
:101E0000900D1124280F391FD3018C9191E0980F68
:101E10009C93909E6001919ED00C1124B0E9CB0E52
:101E2000D11CCE0CDF1CAE01389E400D511D11247B
:101E3000CA01005B1F4F1F930F93812CAA24A39408
:101E40006EE1E62EF12C08E710E04CE350E0BF0114
:101E50000A962BD9B3940F900F90A6CFBEE14B9F5B
:101E600090011124205F3F4F8085918540975EE16E
:101E7000659F80199109112470E06F5F7F4F0E9468
:101E80001231842F90E00196689FA001699F500D48
:101E9000789F500D1124240F351FD3018C9191E0B0
:101EA000980F9C93AE0162E2869F400D511D112454
:101EB000CA011F9245E04F93812C02E0A02E45E31A
:101EC000C42E42E0D42E5EE1E52EF12C08E710E0AE
:101ED0004CE350E0BF0132C0B0E6CB2EB3E0DB2EC6
:101EE000E12CF12C01E010E022E040E250E06FEF45
:101EF0007FEF888199810E941E2568817981D301B5
:101F00008C9191E0980F9C93FE0122E2829FE00D5C
:101F1000F11D1124CF011F9225E02F93812CC2E0E7
:101F2000AC2ED5E3CD2ED2E0DD2E1EE1E12EF12C3C
:101F300008E710E02EE031E04CE350E00A96B5D817
:101F40000F900F90DF91CF911F910F91FF90EF9025
:101F5000DF90CF90BF90AF909F908F907F906F90C9
:101F60005F904F903F900895FC01E350FF4F7183C5
:101F7000608335971082FB013197E730F10580F4DB
:101F8000EA5BFF4F0C9464317FCA96DB09C069DCC1
:101F900007C014DD05C084DD03C084DE01C0D6DEC9
:101FA00081E008952F923F924F925F926F927F92BD
:101FB0008F929F92AF92BF92CF92DF92EF92FF9259
:101FC0000F931F93CF93DF93CDB7DEB76C970FB608
:101FD000F894DEBF0FBECDBF1C014C012BEF820E6B
:101FE000911CD401ED91FC91E858FF4F6081718103
:101FF000828193810E94152AF40120813181A901F7
:1020000042585F4FD901A358BF4FB90164587F4F61
:10201000082FFA0120814C91DB016C91C101D8D9C4
:10202000D101A350BF4F8D919C91119784309105A0
:1020300009F493C418F4039751F0D9C5863091057B
:1020400009F469C58730910509F4A0C5D0C51F9270
:1020500087EF8F93D401ED91FC9183818F938281DF
:102060008F9381818F9380818F9385E793E09F93F6
:102070008F931FEF1F931F931F92FFE1EF2EEF929D
:10208000A2E0FA2EFF921F9288E28F931F9208E03F
:102090000F93F10181818F9380818F930E94C925D5
:1020A000D401ED91FC9160A171A182A193A124E6DC
:1020B00030E040E050E00E9426315F934F933F9321
:1020C0002F938EE793E09F938F931F931F931F92FD
:1020D000EF92FF921F9288E48F931F920F93F1016A
:1020E00081818F9380818F930E94C9250FB6F894C8
:1020F000DEBF0FBECDBFD401ED91FC9183898F93DC
:1021000082898F9381898F9380898F9385E893E06B
:102110009F938F931F931F931F92EF92FF921F9293
:1021200088E68F931F920F93F10181818F938081B5
:102130008F930E94C9251F928EEF8F93D401ED914A
:10214000FC9183A98F9382A98F9381A98F9380A9F2
:102150008F938CE893E09F938F931F931F9388E74F
:102160008F938FE08F93FF921F9288E88F931F9237
:102170000F93F10181818F9380818F930E94C925F4
:102180000FB6F894DEBF0FBECDBFD401ED91FC9128
:10219000E05CFF4F83818F9382818F9381818F9346
:1021A00080818F9387E993E09F938F931F931F9371
:1021B000B3E0DB2EDF9280EEE82EEF92FF921F92CB
:1021C00088EA8F931F920F93F10181818F93808111
:1021D0008F930E94C925D401ED91FC91E05BFF4FE4
:1021E00083818F9382818F9381818F9380818F935D
:1021F00080EA93E09F938F931F931F93DF92EF9258
:10220000FF921F9288EC8F931F920F93F1018181AF
:102210008F9380818F930E94C9250FB6F894DEBFFB
:102220000FBECDBFD401ED91FC91EC59FF4F8381DE
:102230008F9382818F9381818F9380818F9389EA9D
:1022400093E09F938F931F931F9388EF8F931F9219
:10225000FF921F9288EE8F931F920F93F10181815D
:102260008F9380818F930E94C925D4010D911C9179
:10227000F80180809180A280B380248135814681DD
:10228000578160857185828593850E948D316B01B0
:102290007C010FB6F894DEBF0FBECDBF20E030E06A
:1022A000A9010E94F231882389F020E030E040EF5C
:1022B00051E4C501B4010E944533A70196010E9473
:1022C000F6316D877E878F87988B04C01D861E86AA
:1022D0001F86188AD80150968D909D90AD90BC9025
:1022E000539754962D913D914D915C9157975896E7
:1022F0006D917D918D919C915B970E948D316B01C9
:102300007C0120E030E0A9010E94F231882389F0AD
:1023100020E030E040EF51E4C501B4010E944533B4
:10232000A70196010E94F631698B7A8B8B8B9C8B6F
:1023300004C0198A1A8A1B8A1C8AF80140A851A86D
:1023400062A873A824A935A946A957A960AD71ADA3
:1023500082AD93AD0E948D314B015C0120E030E0F5
:10236000A9010E94F231882389F020E030E040EF9B
:1023700051E4C301B2010E944533A50194010E94BA
:10238000F6316D8B7E8B8F8B988F04C01D8A1E8AD1
:102390001F8A188EF801E05CFF4F408051806280F8
:1023A00073803496208131814281538134966081DB
:1023B0007181828193810E948D314B015C0120E00B
:1023C00030E0A9010E94F231882389F020E030E05A
:1023D00040EF51E4C301B2010E944533A5019401CD
:1023E0000E94F6316D837E838F83988704C01D829F
:1023F0001E821F821886F801E05BFF4F40805180EB
:102400006280738034962081318142815381349679
:1024100060817181828193810E948D314B015C01C9
:1024200020E030E0A9010E94F231882389F020E009
:1024300030E040EF51E4C301B2010E944533A501F1
:1024400094010E94F63169877A878B879C8704C044
:1024500019861A861B861C86D80198968D909D90A9
:10246000AD90BC909B9794964D905D906D907C90B4
:10247000979790962D913D914D915C9193978414EF
:102480009504A604B70489F0AEE1B0E00E946A3179
:10249000A501940124193509460957090E942631DE
:1024A000CA01B9010E948F3203C060E070E0CB0125
:1024B0000E9463322B013C01F801E459FF4FC080B8
:1024C000D180E280F380349780809180A280B380B5
:1024D00034972081318142815381C814D904EA04A0
:1024E000FB0489F0AEE1B0E00E946A31A7019601D9
:1024F000281939094A095B090E942631CA01B90124
:102500000E948F3203C060E070E0CB010E94633212
:10251000698F7A8F8B8F9C8F5101B9EFAB0EB11CF5
:10252000F5018081883709F099C02D853E854F855A
:10253000588960E070E080E892E40E948D310E944A
:1025400063322FE130E0AB0168E770E0D1018D919B
:102550009C910E94EF2240E650E044195509F50194
:10256000608170E02FE130E0D1018D919C910E945B
:10257000EF2229893A894B895C8960E070E080E02C
:1025800093E40E948D310E946332F5012081E22F95
:10259000F0E02FE130E0AB01BF01D1018D919C91C2
:1025A0000E94EF222D893E894F89588D60E070E0AE
:1025B00080E293E40E948D310E946332F501208114
:1025C000E22FF0E02FE038E7AB01BF01D1018D91A0
:1025D0009C910E94EF222D813E814F81588560E0C1
:1025E00070E080E493E40E948D310E946332F50133
:1025F0002081E22FF0E020EE33E0AB01BF01D101FA
:102600008D919C910E94EF2229853A854B855C85AE
:1026100060E070E080E693E40E948D310E946332B6
:10262000F5012081E22FF0E020EE33E0AB01BF01A5
:10263000D1018D919C910E94EF2240E051E0E98D03
:10264000FA8D4E1B5F0BD5016C9170E020E038EFE6
:10265000F101808191810E94EF221FC1C82ED12CEF
:102660002D853E854F85588960E070E080E892E4D2
:102670000E948D310E94633269837A838B839C83AD
:10268000D8011C962D913D914D915C911F9760E072
:1026900070E080E892E40E948D310E9463323FE155
:1026A000E32EF12C09811A819601AB01B601F101EB
:1026B000808191810E942423D5016C9170E040E6D5
:1026C00050E08A01041915096101BBEFCB0ED11C42
:1026D000D601ED91FC9184A595A5481B590B9B0152
:1026E000F101808191810E942423D5018C90912C4D
:1026F00029893A894B895C8960E070E080E093E445
:102700000E948D310E94633269837A838B839C831C
:10271000D601ED91FC91248D358D468D578D60E06D
:1027200070E080E093E40E948D310E946332098161
:102730001A819401AB01B401F101808191810E9461
:102740002423D5018C90912C2D893E894F89588D59
:1027500060E070E080E293E40E948D310E94633279
:1027600069837A838B839C83D601ED91FC9124ADA0
:1027700035AD46AD57AD60E070E080E293E40E9475
:102780008D310E9463324FE0E42E48E7F42E098138
:102790001A819401AB01B401F101808191810E9401
:1027A0002423D5018C90912C2D813E814F81588519
:1027B00060E070E080E493E40E948D310E94633217
:1027C00069837A838B839C83D601ED91FC91E45BD2
:1027D000FF4F208131814281538160E070E080E4CD
:1027E00093E40E948D310E94633250EEE52E53E057
:1027F000F52E09811A819401AB01B401F1018081A8
:1028000091810E942423D5018C90912C29853A85B1
:102810004B855C8560E070E080E693E40E948D313A
:102820000E94633269837A838B839C83D601ED9106
:10283000FC91E45AFF4F208131814281538160E055
:1028400070E080E693E40E948D310E94633209813A
:102850001A819401AB01B401F101808191810E9440
:102860002423D5016C9170E040E051E08A01E98DAC
:10287000FA8D0E1B1F0BD601ED91FC91E059FF4F15
:1028800080819181481B590BE12CE8EFFE2E9B01C2
:10289000F101808191810E942423F101E750FF4FD3
:1028A0006081603F08F056C06F5F608370E0EE2487
:1028B000EA94FE2C01EE10E021E030E040E250E02E
:1028C000D1018D919C910E94CB23F101E550FF4FE6
:1028D0000190F081E02D2D853E854F855889248714
:1028E00035874687578744A655A666A677A6898961
:1028F0009A89AB89BC89848F958FA68FB78F2D89D4
:102900003E894F89588D24AF35AF46AF57AFCF01C1
:10291000845B9F4F2D813E814F815885DC012D9333
:102920003D934D935C931397409629853A854B854B
:102930005C85DC012D933D934D935C931397E05997
:10294000FF4F298D3A8D4B8D5C8D208331834283DF
:1029500053834DC188E780834AC1D401ED91FC9136
:10296000E158FF4F83818F9382818F9381818F9371
:1029700080818F93F0EBEF2EF3E0FF2EFF92EF922A
:10298000BB24BA94BF92BF921F92AFE1AA2EAF921E
:10299000B2E0CB2ECF921F9288E68F931F9218E061
:1029A000D12EDF92F10181818F9380818F930E94DC
:1029B000C925D401ED91FC91ED57FF4F83818F9391
:1029C00082818F9381818F9380818F9300EC13E0BC
:1029D0001F930F93BF92BF921F92AF92CF921F92FD
:1029E00088E78F931F92DF92F10181818F9380811D
:1029F0008F930E94C9250FB6F894DEBF0FBECDBFDE
:102A0000D401ED91FC91E957FF4F83818F9382812F
:102A10008F9381818F9380818F93FF92EF92BF92EA
:102A2000BF9283E0E82EEF9290EEF92EFF92CF92C4
:102A30001F9288EA8F931F92DF92F10181818F9319
:102A400080818F930E94C925D401ED91FC91E557B7
:102A5000FF4F83818F9382818F9381818F938081B8
:102A60008F931F930F93BF92BF92EF92FF92CF92DB
:102A70001F9288EB8F931F92DF92F10181818F93D8
:102A800080818F930E94C9250FB6F894DEBF0FBED8
:102A9000CDBFD401ED91FC91EC58FF4F81818F9314
:102AA00080818F9380ED93E09F938F93BF92BF922D
:102AB0001F9211E01F93CF921F9288ED8F931F9268
:102AC000DF92F10181818F9380818F930E94C925CC
:102AD000D401ED91FC91E858FF4F83818F9382815F
:102AE0008F9381818F9380818F938BED93E09F9360
:102AF0008F93BF92BF921F921F93CF921F9288EE27
:102B00008F931F92DF92F10181818F9380818F9348
:102B10000E94C92535C0D1011296ED91FC91139701
:102B200085818F9384818F9383818F9382818F930B
:102B300081818F9380818F938BEE93E09F938F930E
:102B40008FEF8F938F931F929FE19F9392E09F93BC
:102B50008F938F938F938F9311968C9111978F935F
:102B60008C918F930E94C925F10146815781648120
:102B7000758100E018EF23E0808191810E942C2470
:102B80000FB6F894DEBF0FBECDBF31C0B1016850A3
:102B90007F4FFB01408150E0F401208131812157BA
:102BA0003F4FF901208130E02F5F3F4F421753071D
:102BB000F1F08D939C93DB011C92C1016C960FB6D2
:102BC000F894DEBF0FBECDBFDF91CF911F910F9163
:102BD000FF90EF90DF90CF90BF90AF909F908F903D
:102BE0007F906F905F904F903F902F90AFC86C9602
:102BF0000FB6F894DEBF0FBECDBFDF91CF911F910E
:102C00000F91FF90EF90DF90CF90BF90AF909F908B
:102C10008F907F906F905F904F903F902F9008958E
:102C2000EF92FF920F931F93CF93DF93EC01798381
:102C300068832A833B834C835D831CE0169FF001ED
:102C4000179FF00D1124E05FFE4FA281B381FB01BD
:102C500063E0EE0FFF1F6A95E1F7E050FF4FEE24AF
:102C6000E394F12CB701048002C0660F771F0A9429
:102C7000E2F7C701038002C0880F991F0A94E2F7A8
:102C8000862B8C93E881F9811E9FD0011F9FB00D88
:102C90001124A05FBE4F14960D90BC91A02D83E02F
:102CA000EE0FFF1F8A95E1F7E050FF4FB701068056
:102CB00002C0660F771F0A94E2F7C701058002C0C1
:102CC000880F991F0A94E2F7862B8C9360E472E4D4
:102CD0008FE090E00E9426312150310941095109CD
:102CE0002E833F834887598788819981189FF001F7
:102CF000199FF00D1124E05FFE4F0084F185E02D57
:102D0000BB27A52F942F832F808388819981189FBB
:102D1000F001199FF00D1124E05FFE4F0284F3854E
:102D2000E02D8E8180830023F1F0E881F9811E9FE0
:102D3000D0011F9FB00D1124A05FBE4F12960D90C1
:102D4000BC91A02D8C9193E0EE0FFF1F9A95E1F7B7
:102D5000E050FF4F008002C0EE0CFF1C0A94E2F727
:102D60008E298C937894DF91CF911F910F91FF90D2
:102D7000EF900895FC01808191812CE0289FF00163
:102D8000299FF00D1124E05FFE4FA081B181FC016D
:102D900023E0EE0FFF1F2A95E1F7E050FF4F41E0DF
:102DA00050E0018002C0440F551F0A94E2F72C91B5
:102DB00030E024233523232BD1F32CE0289FF0018E
:102DC000299FF00D1124E05FFE4F0680F781E02D72
:102DD00060830895CF92DF92EF92FF920F931F933B
:102DE000CF93DF936C018B01EA014F3F8FEF5807C0
:102DF00039F4EB0109900020E9F72197C61BD70BA6
:102E00007801C701801B910B8C179D0734F4D70103
:102E10006D917D01C601AEDFF4CFD601ED91FC913D
:102E20008CE08E9FD0018F9FB00D1124A05FBE4F0C
:102E30000D90BC91A02D33E0EE0FFF1F3A95E1F706
:102E4000E050FF4F21E030E0078002C0220F331F27
:102E50000A94E2F78C9190E082239323892BD1F39B
:102E6000DF91CF911F910F91FF90EF90DF90CF9066
:102E70000895CF93DF93CDB7DEB7D2500FB6F89455
:102E8000DEBF0FBECDBF9E01275F3D4FC95FDD4F47
:102E900048815981C750D2406FEF71E0CE01019651
:102EA0000E9499364FEF5FEFBE016F5F7F4FCB5FA0
:102EB000DD4F88819981C550D2408CDFDE5F0FB62F
:102EC000F894DEBF0FBECDBFDF91CF910895DC0136
:102ED000ED91FC911197229114968C9128232083D7
:102EE0000895AF92BF92CF92EF92FF920F931F93EC
:102EF000FC01778366835587448737872687118748
:102F00000087F386E286C28AB18AA08A1F910F9158
:102F1000FF90EF90CF90BF90AF900895CF93DF9345
:102F2000EC0188859985D3DF60E0888599850E94CA
:102F30009B268C859D85CBDF60E08C859D850E94DE
:102F40009B26AE85BF85ED91FC91119782911396DA
:102F50009C91892B808360E08E859F850E949B26B3
:102F6000AA85BB85ED91FC911197829113969C9156
:102F7000892B808361E08A859B850E949B26E8855A
:102F8000F98562818E819F810E94C9262FEF33E0EF
:102F9000A901481B590BCA01DF91CF910895CF9326
:102FA000DF93EC018E859F8592DF60E08E859F85A3
:102FB0000E949B268A859B858ADF60E08A859B85A7
:102FC0000E949B26A885B985ED91FC91119782916D
:102FD00013969C91892B808360E0888599850E9457
:102FE0009B26AC85BD85ED91FC911197829113963E
:102FF0009C91892B808361E08C859D850E949B2616
:10300000EA85FB8562818E819F810E94C9262FEF10
:1030100033E0A901481B590BCA01DF91CF910895F4
:10302000CF92DF92EF92FF920F931F93CF93DF9394
:10303000EC01AC85BD85ED91FC91119782911396C1
:103040009C91892B808360E08C859D850E949B26C6
:10305000AE85BF85ED91FC911197829113969C915D
:10306000892B808361E08E859F850E949B268885C1
:1030700099852DDF60E0888599850E949B268A8549
:103080009B8525DF60E08A859B850E949B26E885DD
:10309000F98562818E819F810E94C9268C01EA8513
:1030A000FB8562818E819F810E94C926BC0188892F
:1030B0009989892B09F442C0882777FD8095982F3C
:1030C0000E9491326B017C01B801882777FD8095C1
:1030D000982F0E9491329B01AC01C701B6010E945A
:1030E000F63120E030E040E85FE30E948D316B0173
:1030F0007C01CE0113DFBC0180E090E00E948F32A2
:103100009B01AC01C701B6010E9445336B017C01F4
:103110006889798980E090E00E948F329B01AC0140
:10312000C701B6010E94453320E030E040E85AE391
:103130000E9445330E946332CB0105C0C801861B43
:10314000970B81509C4FDF91CF911F910F91FF9072
:10315000EF90DF90CF9008954F925F926F927F92A1
:10316000AF92BF92CF92DF92EF92FF920F931F9395
:10317000CF93DF93EC016B017A01590151DF9D83FD
:103180008C83883C910510F480E066C0CE01C6DED9
:1031900099838883CE01C2DE288139818217930703
:1031A00099F7CE01FCDE9B838A83CE01F8DE8C0189
:1031B0008A819B810817190739F728813981C9014C
:1031C0008E5891098F3E9240F8F6C8018A5A9109AB
:1031D000893B9240C8F640E050E02E583109410941
:1031E0005109A0E4B1E00E946A312EEE32E040E0E5
:1031F00050E00E94263129013A0139832883980141
:1032000040E050E02A5A310941095109A0EFB0E0ED
:103210000E946A3128EB32E040E050E00E94263103
:103220003B832A838A89F601811109C03183208377
:103230002881398180E491E0821B930B04C0518284
:1032400040828A819B81F701918380838C819D815B
:10325000F5019183808381E0DF91CF911F910F91E0
:10326000FF90EF90DF90CF90BF90AF907F906F90E6
:103270005F904F900895FC01758764875787468754
:10328000FFEF29EF80E0F15020408040E1F700C0DF
:10329000000080B7886080BF83B7856083BF87B731
:1032A000816087BF78940895CF93DF93EC016881A4
:1032B00079818A819B816F5F7F4F8F4F9F4F68839A
:1032C00079838A839B836115710581059105D9F006
:1032D0002CE330E040E050E00E942631672B682B61
:1032E000692B89F44C815D816E817F814F5F5F4FD7
:1032F0006F4F7F4F4C835D836E837F83EE85FF85A9
:10330000309709F00995EC85FD85309719F0DF912C
:10331000CF910994DF91CF910895FC016081718173
:10332000828193812CE330E040E050E00E9426311E
:10333000862F0895CF92DF92EF92FF92FC01608179
:103340007181828193812CE3C22ED12CE12CF12C4E
:10335000A70196010E942631CA01B901A701960171
:103360000E942631862FFF90EF90DF90CF90089536
:10337000FC01608171818281938120E13EE040E027
:1033800050E00E942631CA01B90128E130E040E056
:1033900050E00E942631862F0895FC014081518122
:1033A00062817381408751876287738708950F9385
:1033B0001F93FC0160817181828193810085118559
:1033C00022853385601B710B820B930B1F910F912C
:1033D000089585EB88BB87EC87BB80E58DB9709A33
:1033E00008958FB9779BFECF0895CF93DF9300D0D8
:1033F000CDB7DEB78EEE4A8369830E944626698187
:10340000862F0E9476264A81842F0E9476260F906E
:103410000F90DF91CF910C946E26AF92BF92DF9206
:10342000EF92FF920F931F93CF93DF9300D01F92E1
:10343000CDB7DEB7D22E8EEE4A835B8369830E94BE
:1034400046266981862F0E9476268FEE0E946D2681
:103450004A81A42E5B81B52E00E010E0ED2CF12C0A
:1034600081E0E81AF1080D1580F40E151F0519F416
:103470000E94912602C00E948726F50180830F5F7B
:103480001F4FFFEFAF1ABF0AEECF0F900F900F90B4
:10349000DF91CF911F910F91FF90EF90DF90BF9040
:1034A000AF900C946E260F931F93CF93DF9300D0B1
:1034B000CDB7DEB78C011A82198222E0AE014F5FD0
:1034C0005F4F6AEAAADF898190E0982F88272A81D6
:1034D000822BF8019183808322E0AE014F5F5F4F22
:1034E0006CEAC8019ADF898190E0982F88272A81A9
:1034F000822BF8019383828322E0AE014F5F5F4FFE
:103500006EEAC8018ADF898190E0982F88272A8196
:10351000822BF8019583848322E0AE014F5F5F4FD9
:1035200060EBC8017ADF898190E0982F88272A8193
:10353000822BF801918B808B22E0AE014F5F5F4FB1
:1035400062EBC8016ADF898190E0982F88272A8181
:10355000822BF801938B828B22E0AE014F5F5F4F8D
:1035600064EBC8015ADF898190E0982F88272A816F
:10357000822BF801958B848B22E0AE014F5F5F4F69
:1035800066EBC8014ADF898190E0982F88272A815D
:10359000822BF8019783868322E0AE014F5F5F4F55
:1035A00068EBC8013ADF898190E0982F88272A814B
:1035B000822BF8019187808722E0AE014F5F5F4F39
:1035C0006AEBC8012ADF898190E0982F88272A8139
:1035D000822BF8019387828722E0AE014F5F5F4F15
:1035E0006CEBC8011ADF898190E0982F88272A8127
:1035F000822BF8019587848722E0AE014F5F5F4FF1
:103600006EEBC8010ADF898190E0982F88272A8114
:10361000822BF801978786870F900F90DF91CF91CB
:103620001F910F910895CF92DF92EF92FF920F9327
:103630001F93CF93DF9300D0CDB7DEB78C011A82F2
:1036400019824EE264EFD1DE8FE19EE40197F1F73B
:1036500000C0000022E0AE014F5F5F4F66EFC8017F
:10366000DCDE2981822F90E0A0E0B0E02227382F15
:10367000492F5A2F8A81282BF80184899589281B84
:10368000390B41095109A289B3890E946A316B0142
:103690007C014FE0F594E794D794C7944A95D1F70D
:1036A00064857585882777FD8095982F5BE0660F88
:1036B000771F881F991F5A95D1F72685378544278C
:1036C00037FD4095542F2C0D3D1D4E1D5F1D0E9452
:1036D00048312C0D3D1D4E1D5F1DCA01B9010F90D3
:1036E0000F90DF91CF911F910F91FF90EF90DF909E
:1036F000CF9008954F925F926F927F928F929F9298
:10370000AF92BF92CF92DF92EF92FF920F931F93EF
:10371000CF93DF93CDB7DEB72B970FB6F894DEBF0C
:103720000FBECDBF8C016A017B0119821A821B82F8
:1037300044EF64EF5ADE2FEF84E491E021508040A3
:103740009040E1F700C0000023E0AE014F5F5F4F03
:1037500066EFC80162DED701C601805A9F40A10909
:10376000B1098C839D83AE83BF839C01AD01BC01F5
:10377000CD010E94F7304B015C01D8014D905C9067
:10378000119714960D90BC91A02D0E9474316B017D
:103790007C018DE0F594E794D794C7948A95D1F78E
:1037A000F801A681B781A50194019CE05595479544
:1037B000379527959A95D1F70E947431BB2797FDCD
:1037C000B095AB2FC80ED91EEA1EFB1EF2E0CF0E3D
:1037D000D11CE11CF11C32E0F594E794D794C79416
:1037E0003A95D1F720E8D20EE11CF11CF801A0892E
:1037F000B189A70196010E946A31DC01CB014FE03B
:10380000B695A795979587954A95D1F78887998713
:10381000AA87BB878981CA80D12CE12CF12CFE2C90
:10382000ED2CDC2CCC24E82A8B81C82A65E0F594A9
:10383000E794D794C7946A95D1F7662457FC6094AF
:10384000762C72E0440C551C661C771C7A95D1F7D7
:10385000A085B185A50194010E9474314B015C01E2
:10386000A7E1B594A79497948794AA95D1F7A281DC
:10387000B3812C813D814E815F810E947431BBE018
:103880009595879577956795BA95D1F7860E971E8A
:10389000A81EB91E480C591C6A1C7B1C440C551CE4
:1038A000661C771CC418D508E608F708AAE6B8E134
:1038B000A70196010E946A3197FD0DC0660F771F20
:1038C000881F991F288539854A855B850E94263186
:1038D00049015A010CC0288539854A855B850E94BB
:1038E000263149015A01880C991CAA1CBB1C992736
:1038F000B7FC9A958B2D7A2D692D9B01AC010E9406
:10390000F7309B01AC01AEEDBBE00E946A316C0167
:10391000FF24D7FCF094EF2CA3E4B3EEA5019401AF
:103920000E947631BB2797FDB095AB2FC80ED91EEC
:10393000EA1EFB1E9FECC90E9EE0D91EE11CF11C85
:10394000A4E0F594E794D794C794AA95D1F7C80C4E
:10395000D91CEA1CFB1CC701B6012B960FB6F894C4
:10396000DEBF0FBECDBFDF91CF911F910F91FF90B2
:10397000EF90DF90CF90BF90AF909F908F907F900F
:103980006F905F904F9008958ECDCB01BA010E9449
:103990008F3220E836EE45EC57E40E94F63121E004
:1039A0003EED42E45EE30E94A8339B01AC0160E07F
:1039B00070E080E89FE30E948D312BE43AE34DEB09
:1039C00057E30E94F63120E030E0A9010C948E31DB
:1039D0004F925F926F927F928F929F92AF92BF921F
:1039E000CF92DF92EF92FF920F931F93CF93DF93CB
:1039F000EC016B017A01890116DE2B013C01AB0160
:103A0000BC01CE0177DE4B015C01C301B201685FEE
:103A10007F4F8F4F9F4F34E09595879577956795AA
:103A20003A95D1F70E94913220E030E040E251E433
:103A30000E94F631F6016083718382839383F701DC
:103A400080829182A282B382B501A401CE019DDF62
:103A5000F8016083718382839383DF91CF911F91FB
:103A60000F91FF90EF90DF90CF90BF90AF909F901D
:103A70008F907F906F905F904F900895FC017183BD
:103A8000608353834283248308950F931F93CF93BE
:103A9000DF93EC0160E0888199810E949B2687EC8E
:103AA00090E00197F1F700C000006C818A819B8152
:103AB0000E94C9268C0161E0888199810E949B2621
:103AC000013293E0190718F080E090E001C0C801CE
:103AD000DF91CF911F910F910895CF92DF92EF92D6
:103AE000FF92CF93DF93EB01D0DFBC0180E090E049
:103AF0000E948F3220E030E040EA5BE30E944533D1
:103B00006B017C012DE73FE345E15FE30E94F23169
:103B100087FF05C0188219821A821B8218C020E014
:103B200030E040EC50E4C701B6010E94453320E08C
:103B300030E04CE052E40E94F6312DEC3CEC4CECD1
:103B40005DE30E948D31688379838A839B83DF9153
:103B5000CF91FF90EF90DF90CF900895AF92BF92FA
:103B6000DF92EF92FF920F931F93CF93DF9300D0DA
:103B70001F92CDB7DEB7D22E80EE4A835B83698376
:103B80000E9446266981862F0E94762681EE0E9439
:103B90006D264A81A42E5B81B52E00E010E0ED2C4D
:103BA000F12C81E0E81AF1080D1580F40E151F05BF
:103BB00019F40E94912602C00E948726F501808395
:103BC0000F5F1F4FFFEFAF1ABF0AEECF0F900F909E
:103BD0000F90DF91CF911F910F91FF90EF90DF90A9
:103BE000BF90AF900C946E26AB0126E0E4E2F6E0C5
:103BF000DF011D922A95E9F726E069E0AFCFAF9289
:103C0000BF92CF92DF92EF92FF920F931F93CF93C9
:103C1000DF9300D000D000D0CDB7DEB76B017A01C2
:103C20008901BE016F5F7F4FDFDF69816D30D0F1A9
:103C3000AA808CE08A15B0F5BB808B1598F570E0F2
:103C40006D507109882777FD8095982F0E949132D9
:103C50002EEA34E94FED50E40E94453320E030E095
:103C600048EC53E40E948E31F601608371838283B5
:103C70009383F701A0826B2D70E06D507109882746
:103C800077FD8095982F0E9491322DEE3CEB4BE80A
:103C900050E40E944533F8016083718382839383EB
:103CA00081E001C080E026960FB6F894DEBF0FBE1B
:103CB000CDBFDF91CF911F910F91FF90EF90DF90DB
:103CC000CF90BF90AF9008958F929F92AF92BF9286
:103CD000CF92DF92EF92FF924A015B0124D06B01F9
:103CE0007C01C501B4010E948F329B01AC01C70168
:103CF000B6010E944533FF90EF90DF90CF90BF90C8
:103D0000AF909F908F90089581508A3048F4E82FAB
:103D1000F0E0EE0FFF1FE35CFB4F8081918108957F
:103D20008AEF93E0089590E0FC013197EA30F105C5
:103D300088F5E35BFF4F0C94643136EA2BE994EC91
:103D400007C036E72EE69AED1EC03CE428EA90EE66
:103D50008AE31FC039E12FEA91E28FE31AC036EA05
:103D60002BE994E48DE315C035E524EA92EC0BC011
:103D70003AEE25E992E30CC036EA2BE994EC03C055
:103D80003FE02EEE9EEC8BE304C03AE027ED93E299
:103D90008CE3AC01632F722F852F942F0895CF925F
:103DA000DF92EF92FF92CF93DF93EB01FC017183DF
:103DB000608366B577B580E090E00E948F326B013A
:103DC0007C01BE0180E090E00E948F329B01AC013B
:103DD000C701B6010E94453320E030E04AE754E4D1
:103DE0000E94F6310E945E327BBD6ABDDF91CF91A9
:103DF000FF90EF90DF90CF900895CF93DF93EC0189
:103E00001FBCBD9A2A853B854C855D8560E074E2C8
:103E100084EF90E00E94263137BD26BD688179810C
:103E2000CE01BDDF89E18EBD8FB582688FBDDF9188
:103E3000CF9108950F931F93CF93DF93EC018B01E4
:103E40008E859F85688179818017910720F41F876F
:103E50000E87798B688B888599852E813F81820FAB
:103E6000931F0817190748F08A819B8186179707C7
:103E700020F461507109CE0192DF8E819F812885E7
:103E80003985821B930B8017910758F068817981DF
:103E90008C819D816817790720F46F5F7F4FCE0179
:103EA0007EDF888199818438934031F468897989EB
:103EB000CE0175DF80E001C081E0DF91CF911F91DD
:103EC0000F9108951F93CF93DF93EC01162F60E0BD
:103ED0008C819D8130D760E0888199812CD7812F9A
:103EE00080DA61E08881998126D761E08C819D81AB
:103EF000DF91CF911F911FC7CF92DF92FF920F9357
:103F00001F93CF93DF9300D000D01F92CDB7DEB7C1
:103F10006C01F62E6AE22B833A834D835C837983AE
:103F2000D1DF60E0F6018481958105D77981872F03
:103F300058DA8F2D56DA61E0F60184819581FBD63F
:103F400060E0F60184819581F6D63A81832F49DAC3
:103F50002B81822F46DA61E0F60184819581EBD6D0
:103F60006BE2C601AFDF60E0F60184819581E3D6A4
:103F70005C81852F36DA4D81842F33DA61E0F601DA
:103F800084819581D8D660E0F60184819581D3D66D
:103F9000812F27DA802F25DA61E0F601848195816F
:103FA000CAD66CE2C6010F900F900F900F900F9041
:103FB000DF91CF911F910F91FF90DF90CF9082CF33
:103FC000CF93DF93EC0161E08A819B81B4D62FEF20
:103FD00089EF90E0215080409040E1F700C0000060
:103FE00060E08A819B81A7D62FEF89EF90E0215076
:103FF00080409040E1F700C0000061E08A819B8131
:104000009AD62FEF89EF90E0215080409040E1F761
:1040100000C00000DF91CF910895CF93DF93EC01B2
:1040200061E08A819B8187D680E491E09F838E83C3
:1040300080EF90E099878887CE01C2DF61E0CE01F2
:1040400041DF8FE39CE90197F1F700C000006BECC2
:10405000CE0138DF60E08C819D816DD689E3C1D9C6
:1040600061E08C819D8167D660E08C819D8163D603
:104070008CE2B7D961E08C819D815DD660E08C8156
:104080009D8159D680E0ADD961E08C819D8153D668
:1040900060E08C819D814FD684E3A3D961E08C815F
:1040A0009D8149D660E08C819D8145D682E099D979
:1040B00061E08C819D813FD66FECCE0103DF60E033
:1040C0008C819D8138D680E08CD961E08C819D8186
:1040D00032D660E08C819D812ED681EC82D961E060
:1040E0008C819D8128D660E08C819D8124D680E3DF
:1040F00078D961E08C819D811ED668EECE01E2DE2A
:1041000060E08C819D8117D685E86BD961E08C8158
:104110009D8111D660E08C819D810DD680E061D9B2
:1041200061E08C819D8107D660E08C819D8103D602
:1041300088E757D961E08C819D81FDD56AEECE017B
:10414000C1DE60E08C819D81F6D580E04AD961E0D6
:104150008C819D81F0D560E08C819D81ECD580E0E3
:1041600040D961E08C819D81E6D56DEECE01AADE5D
:1041700060E08C819D81DFD584E633D961E08C815C
:104180009D81D9D560E08C819D81D5D583E029D9E9
:1041900061E08C819D81CFD560E08C819D81CBD504
:1041A00082E11FD961E08C819D81C5D560E08C8161
:1041B0009D81C1D581E815D961E08C819D81BBD5F8
:1041C00067EFCE017FDE60E08C819D81B4D580E217
:1041D00008D961E08C819D81AED560ECCE0172DEA4
:1041E00060E08C819D81A7D583E2FBD861E08C8162
:1041F0009D81A1D561ECCE0165DE60E08C819D8161
:104200009AD580E1EED861E08C819D8194D565ECF2
:10421000CE0158DE60E08C819D818DD58EE3E1D8A2
:1042200061E08C819D8187D560E08C819D8183D503
:1042300088E2D7D861E08C819D817DD567ECCE0185
:1042400041DE60E08C819D8176D586E8CAD861E048
:104250008C819D8170D566E3CE0134DE60E08C8177
:104260009D8169D588E4BDD861E08C819D8163D54D
:104270006AE3CE0127DE60E08C819D815CD585E517
:10428000B0D861E08C819D8156D561EBCE011ADEFC
:1042900060E08C819D814FD580E0A3D861E08C8166
:1042A0009D8149D560E08C819D8145D588E199D873
:1042B00061E08C819D813FD566EBCE0103DE60E03D
:1042C0008C819D8138D588E08CD861E08C819D817E
:1042D00032D560E08C819D812ED582E882D861E064
:1042E0008C819D8128D560E08C819D8124D587E2D9
:1042F00078D861E08C819D811ED562EFCE01E2DD30
:1043000060E08C819D8117D580E06BD861E08C8165
:104310009D8111D566E2CE01D5DD60E08C819D8165
:104320000AD581E05ED861E08C819D8104D560EE84
:10433000CE01C8DD60E08C819D81FDD48FE051D835
:1043400061E08C819D81F7D460E08C819D81F3D404
:1043500081E347D861E08C819D81EDD460E08C8160
:104360009D81E9D48BE23DD861E08C819D81E3D4CD
:1043700060E08C819D81DFD48CE033D861E08C815A
:104380009D81D9D460E08C819D81D5D48EE029D8DF
:1043900061E08C819D81CFD460E08C819D81CBD404
:1043A00088E01FD861E08C819D81C5D460E08C815C
:1043B0009D81C1D48EE415D861E08C819D81BBD4F0
:1043C00060E08C819D81B7D481EF0BD861E08C8156
:1043D0009D81B1D460E08C819D81ADD487E301D80B
:1043E00061E08C819D81A7D460E08C819D81A3D404
:1043F00087E00E94F11961E08C819D819CD460E08E
:104400008C819D8198D480E10E94F11961E08C81BA
:104410009D8191D460E08C819D818DD483E00E9448
:10442000F11961E08C819D8186D460E08C819D8151
:1044300082D48EE00E94F11961E08C819D817BD451
:1044400060E08C819D8177D489E00E94F11961E060
:104450008C819D8170D460E08C819D816CD480E0E2
:104460000E94F11961E08C819D8165D461EECE01DD
:1044700029DD60E08C819D815ED480E00E94F1198D
:1044800061E08C819D8157D460E08C819D8153D403
:104490008EE00E94F11961E08C819D814CD460E036
:1044A0008C819D8148D484E10E94F11961E08C8166
:1044B0009D8141D460E08C819D813DD483E00E9448
:1044C000F11961E08C819D8136D460E08C819D8101
:1044D00032D481E10E94F11961E08C819D812BD45D
:1044E00060E08C819D8127D487E00E94F11961E012
:1044F0008C819D8120D460E08C819D811CD481E3DE
:104500000E94F11961E08C819D8115D460E08C815D
:104510009D8111D481EC0E94F11961E08C819D8113
:104520000AD460E08C819D8106D488E40E94F11950
:1045300061E08C819D81FFD360E08C819D81FBD304
:1045400088E00E94F11961E08C819D81F4D360E0E4
:104550008C819D81F0D38FE00E94F11961E08C8104
:104560009D81E9D360E08C819D81E5D38CE00E9440
:10457000F11961E08C819D81DED360E08C819D81A9
:10458000DAD381E30E94F11961E08C819D81D3D35C
:1045900060E08C819D81CFD386E30E94F11961E0B8
:1045A0008C819D81C8D360E08C819D81C4D38FE0D4
:1045B0000E94F11961E08C819D81BDD361E1CE0142
:1045C00081DC9FEF2BED85E0915020408040E1F7AA
:1045D00000C0000069E2CE01DF91CF9173CCEF9271
:1045E000FF920F931F93CF93DF93EC01F22EE32EF4
:1045F000EE81FF816E177F0700F5E885F9854E177C
:104600005F07D8F48A010F5F1F4F9B012F5F3F4F59
:1046100073DC60E08C819D818ED38E2D0E94F11918
:104620008F2D0E94F11961E08C819D81DF91CF91E6
:104630001F910F91FF90EF907EC3DF91CF911F915B
:104640000F91FF90EF9008952F923F924F925F92BB
:104650006F927F928F929F92AF92BF92CF92DF9292
:10466000EF92FF920F931F93CF93DF9300D000D070
:1046700000D0CDB7DEB75C016B015E834D832901AD
:104680001C830B833701041B150B7901E61AF70A0B
:1046900017FF07C011950195110922242A94322C85
:1046A00003C022242394312CF7FE08C0F194E19436
:1046B000F1082FEF3FEF3A83298304C081E090E0B7
:1046C0009A838983000F111FEE0CFF1C93014D810B
:1046D0005E81B601C50183DF0E151F0504F5C70114
:1046E000959587954801881A990AC414D504D1F183
:1046F00097FC08C0ED81FE81E20DF31DFE83ED8382
:104700008E189F0829813A81C20ED31E800E911EF9
:1047100093014D815E81B601C50161DFE6CFC8011D
:10472000959587954701881A990A2D813E818B813D
:104730009C8128173907B1F097FC06C089819A81BE
:10474000C80ED91E801A910AED81FE81E20DF31D7B
:10475000FE83ED838E0C9F1C9301AF01B601C50152
:104760003EDFE3CF26960FB6F894DEBF0FBECDBF77
:10477000DF91CF911F910F91FF90EF90DF90CF903D
:10478000BF90AF909F908F907F906F905F904F9071
:104790003F902F900895AF92BF92CF92DF92EF9209
:1047A000FF920F931F93CF93DF93EC0169015801A0
:1047B0002E813F816217730708F043C08885998571
:1047C0004817590708F03DC0F6013197E60FF71F6B
:1047D000E217F30718F06901C61AD70A95012150AC
:1047E0003109240F351F2817390718F05C01A41A66
:1047F000B50A8A01015011090A0D1B1D9B012150A8
:1048000031092C0D3D1DCE0177DBA114B104C9F097
:1048100086010115110589F060E08C819D818BD2A4
:104820008F2D0E94F1198E2D0E94F11961E08C816B
:104830009D8181D201501109ECCF81E0A81AB10805
:10484000E4CFDF91CF911F910F91FF90EF90DF9018
:10485000CF90BF90AF900895EF92FF920F931F9368
:10486000213031F498011F910F91FF90EF90B7CE56
:1048700030E0780189018FDF1F910F91FF90EF9059
:104880000895EF92FF920F931F93FC01008511850D
:10489000268137817B0140E050E060E070E07BDF03
:1048A0001F910F91FF90EF9008951F93CF93DF9387
:1048B000EC01162F66E306DB113089F050F0123060
:1048C000A1F0133091F560E08C819D8134D288EEA7
:1048D0001EC060E08C819D812ED288E40BC060E018
:1048E0008C819D8128D288E212C060E08C819D81FC
:1048F00022D288E80E94F11961E08C819D811BD24F
:1049000080EF90E09F838E8380E491E00CC00E9452
:10491000F11961E08C819D810ED280E491E09F834A
:104920008E8380EF90E099878887DF91CF911F91E8
:1049300008952F923F924F925F926F927F928F9243
:104940009F92AF92BF92CF92DF92EF92FF920F931E
:104950001F93CF93DF93CDB7DEB729970FB6F894A7
:10496000DEBF0FBECDBF9A838983742E652E502E75
:10497000FC82EB82DE82CD8285E0289F100111242B
:10498000A02EB12C68877987812C912CF101E85BEE
:10499000FE4F1F01F5E08F1629F0F101E80DF91D1A
:1049A000449001C0412CE72CF62CC72CD62C38E0C3
:1049B00040FE08C08B819C81009791F08C01252DD1
:1049C000A60107C0ED81FE81309751F08F01252DA2
:1049D000A7016885798589819A813F833DDF3F8181
:1049E00046943150CA0CDB1CEA0CFB1C3111E0CFA1
:1049F000FFEF8F1A9F0A888599858A0D9B1D9987DD
:104A0000888796E08916910429F629960FB6F894BE
:104A1000DEBF0FBECDBFDF91CF911F910F91FF90F1
:104A2000EF90DF90CF90BF90AF909F908F907F904E
:104A30006F905F904F903F902F9008952F923F92EC
:104A40004F925F926F927F928F929F92AF92BF929E
:104A5000CF92DF92EF92FF920F931F93CF93DF934A
:104A6000CDB7DEB729970FB6F894DEBF0FBECDBF26
:104A70004C01798768875A01322F1801370126E0E7
:104A8000329F200111246F3F7F4FC1F4F601019046
:104A90000020E9F73197EC19FD094E9EC0014F9EA9
:104AA000900D5E9E900D1124F4010680F781E02D9B
:104AB000E81BF90BF695E795F987E887432F50E057
:104AC000FFEFAF16BF0669F4F401A084B184CA01F8
:104AD00013E0880F991F1A95E1F7A81AB90AB6943E
:104AE000A79424EF2403C001259F900D11249C83DB
:104AF0008B83FA01B3E0EE0FFF1FBA95E1F7FE8357
:104B0000ED83DA82C982E981FA812191FA83E9830E
:104B1000222331F12D30B9F32A3039F44D815E81F1
:104B2000A40EB51E19861886EECF63017101032FFE
:104B3000A50168857985C4013F83FBDEF401868188
:104B400097814B815C81840F951F3F81E885F985B2
:104B50008E179F0718F3E40DF51DF987E887D3CF6B
:104B600029960FB6F894DEBF0FBECDBFDF91CF916F
:104B70001F910F91FF90EF90DF90CF90BF90AF907B
:104B80009F908F907F906F905F904F903F902F906D
:104B90000895CF92DF92EF92FF920F931F93CF93DE
:104BA000DF93CDB7DEB7DA950FB6F894DEBF0FBE50
:104BB000CDBF9E01285E3E4FCA5EDE4F48815981BF
:104BC000C651D1406FEF70E0CE0101960E94993638
:104BD000CE0101966C01CC5EDE4FE880F980C451B5
:104BE000D140CE5EDE4F08811981C251D140CF5EE7
:104BF000DE4F2881C151D140C15FDE4F48815981CC
:104C0000CF50D140C35FDE4F68817981CD50D14014
:104C1000C55FDE4F88819981CB50D1400FDFD3959E
:104C20000FB6F894DEBF0FBECDBFDF91CF911F91BD
:104C30000F91FF90EF90DF90CF9008951092710048
:104C400088E180937000089594EA909374009091A5
:104C5000740097FFFCCF90917100987F983021F0FD
:104C6000903111F081E008958093730084E880937F
:104C700074008091740087FFFCCF80917100887F61
:104C8000883111F0803471F780E0089524EA34E827
:104C900044E9209374009091740097FFFCCF9091A9
:104CA0007100987F983011F0903199F780937300DC
:104CB000309374009091740097FFFCCF9091710035
:104CC000987F903211F0983539F4409374009091A8
:104CD000740094FDFCCFDDCF0895B6CF84E98093B6
:104CE00074008091740084FDFCCF0895809373005C
:104CF00084E8809374008091740087FFFCCF9091CA
:104D00007100987F81E0983209F480E0089584EC86
:104D1000809374008091740087FFFCCF80917300B2
:104D2000089584E8809374008091740087FFFCCF1D
:104D3000809173000895DC01ED91FC9111978081C1
:104D4000662321F013969C91892B03C014969C91A5
:104D5000892380830895DC01ED91FC9111973297AE
:104D6000208113968C91282381E009F480E0089536
:104D7000CF93DF93EC01EFDF61E06827CE01DBDF4B
:104D8000DF91CF91089527E826B921E0FC01208327
:104D90000895FC01208121110AC027E826B921E0ED
:104DA00020838FE99FE00197F1F700C00000606465
:104DB00067B9369A3699FECF84B125B190E0922B2F
:104DC00008954F925F926F927F928F929F92AF92CF
:104DD000BF92CF92DF92EF92FF920F931F934A01FF
:104DE0005B0169016E2DD5DFBC0180E090E00E947F
:104DF0008F3220E030E040E85AE30E9445332B0137
:104E00003C01B601600F711F80E090E00E948F327C
:104E10009B01AC01C301B2010E9445336B017C01CF
:104E2000B80180E090E00E948F329B01AC01C70185
:104E3000B6010E94F631A50194010E9445331F91ED
:104E40000F91FF90EF90DF90CF90BF90AF909F9029
:104E50008F907F906F905F904F9008958091100792
:104E600090911107A0911207B09113078093080742
:104E700090930907A0930A07B0930B0710921007AD
:104E80001092110710921207109213074091080711
:104E90005091090760910A0770910B0788E00E9402
:104EA000641E20E030E040E752E40E94F6319B01AE
:104EB000AC016091FC067091FD068091FE06909118
:104EC000FF060E948E316093FC067093FD0680936E
:104ED000FE069093FF0681E08093FB06089581E033
:104EE0008093290185E899E00E948D1965E00E9470
:104EF0000631911122C085E899E00E948D1988231E
:104F0000E1F020910C0730910D0740910E07509170
:104F10000F07ACE0B0E00E946A316093080770931D
:104F2000090780930A0790930B0710920C071092C1
:104F30000D0710920E0710920F078091F606882336
:104F400039F08091F706811103C08AE999E010DFFA
:104F5000809128018F5F809328010895DC01ED91F5
:104F6000FC911197229114968C9128232083089507
:104F7000611101C0F3CFDC01ED91FC9111972291F9
:104F800013968C91282B2083089561E088EB99E09B
:104F9000EFCF1F920F920FB60F9211240BB60F9204
:104FA0002F933F934F935F936F937F938F939F9331
:104FB000AF93BF93EF93FF9385E899E00E94541954
:104FC000FF91EF91BF91AF919F918F917F916F91E1
:104FD0005F914F913F912F910F900BBE0F900FBE9D
:104FE0000F901F9018951F920F920FB60F921124D9
:104FF0000BB60F92CF92DF92EF92FF922F933F93D7
:105000004F935F936F937F938F939F93AF93BF93D0
:10501000EF93FF938091100790911107A0911207D1
:10502000B09113078F3F9F4FAF4FBF4F99F08091C3
:10503000100790911107A0911207B09113070196E4
:10504000A11DB11D8093100790931107A093120723
:10505000B093130780910C0790910D07A0910E0754
:10506000B0910F070196A11DB11D80930C0790937D
:105070000D07A0930E07B0930F07C0908509D0903D
:105080008609E0908709F0908809C114D104E104F1
:10509000F104C1F020910407309105074091060703
:1050A00050910707ACE3B0E00E946A31A701960176
:1050B0000E94263120930007309301074093020796
:1050C0005093030781E08093FA06FF91EF91BF911F
:1050D000AF919F918F917F916F915F914F913F9190
:1050E0002F91FF90EF90DF90CF900F900BBE0F901D
:1050F0000FBE0F901F90189561E08AE999E01BDEC2
:1051000087EC90E00197F1F700C0000060E08AE9C9
:1051100099E011CEEF920F931F9385E0E82E0CEDEE
:1051200010E02CED30E043E353E363E570E484E802
:1051300099E047DE1F910F91EF900895EF920F9342
:105140001F93E12C0FE210E020E137E243E353E349
:1051500063E570E484E899E034DE1F910F91EF90ED
:105160000895CADF2FEF87EA91E6215080409040F2
:10517000E1F700C0000060E08FE999E0DCDD8FE935
:1051800099E0ECCEFF920F931F93CF93DF93EC0146
:1051900061E574E00E941E36892B09F449C08E0136
:1051A000055F1F4F62E270E0C8010E94F035E09198
:1051B000A208E530E8F524E1E29FF0011124ED5565
:1051C000F74F23E1DF011D922A95E9F7AC014C1B53
:1051D0005D0B4B50443108F043E150E08091A20850
:1051E00094E1F92EF89EC0011124B8018D55974F16
:1051F0000E9404368091A208F89EC00111248D55AA
:10520000974F9F938F938BE594E09F938F938AE7BB
:1052100099E09F938F930E9439178091A2088F5F26
:105220008093A2080F900F900F900F900F900F9007
:1052300068E674E0CE010E94FB35892B31F4DF91E2
:10524000CF911F910F91FF9057CF6DE674E0CE0183
:105250000E94FB35892B31F4DF91CF911F910F9183
:10526000FF907FCF66E774E0CE010E94FB35892B6B
:1052700081F48FE794E09F938F9380914A098F93F5
:10528000809149098F930E9439170F900F900F90CA
:105290000F90DF91CF911F910F91FF9008951F9272
:1052A0000F920FB60F9211240BB60F922F933F93CC
:1052B0004F935F936F937F938F939F93AF93BF931E
:1052C000EF93FF93CF93DF931F92CDB7DEB78CB1EF
:1052D00089838091960890919708A0919808B09141
:1052E00099080196A11DB11D809396089093970887
:1052F000A0939808B093990889818A3039F0898100
:105300008D3021F0A0919006A43631F481E996E029
:1053100039DF109290060DC0E1E0EA0FE0939006AD
:105320008981B0E0AF56B94F8C93F0E0EF56F94F5A
:1053300010820F90DF91CF91FF91EF91BF91AF91CC
:105340009F918F917F916F915F914F913F912F919D
:105350000F900BBE0F900FBE0F901F9018951F92CD
:105360000F920FB60F9211240BB60F922F933F930B
:105370004F935F936F937F938F939F93AF93BF935D
:10538000EF93FF93CF93DF931F92CDB7DEB780915A
:105390009C00898369818AE799E00E94BA1680910E
:1053A000920890919308A0919408B0919508019665
:1053B000A11DB11D8093920890939308A093940827
:1053C000B093950889818A3039F089818D3021F038
:1053D000A0912A06A43631F48BE296E0D3DE109237
:1053E0002A060DC0E1E0EA0FE0932A068981B0E0C9
:1053F000A55DB94F8C93F0E0E55DF94F10820F90F9
:10540000DF91CF91FF91EF91BF91AF919F918F91DC
:105410007F916F915F914F913F912F910F900BBEB4
:105420000F900FBE0F901F90189523E333E343E5D1
:1054300050E473D720E030E048EC52E40E9445335A
:105440002CEC3CEC4CE45FE3D1D70E946332862F16
:10545000653608F084E60895CF93DF93CDB7DEB7C5
:10546000CD5DD1400FB6F894DEBF0FBECDBF61E079
:105470008FE999E060DC84B7806884BF84B7806876
:1054800084BF4EE257E26FE677E285E899E00E943A
:105490003B1985E899E00E94CD1984E899E073DC16
:1054A0000E94E919CBDB01E020E835E240E050E062
:1054B00061E070E080E799E00E94101620E835E294
:1054C00040E050E060E070E08AE799E00E9410164A
:1054D0008AB783608ABF89B7806189BF8BE199E011
:1054E0000E94FD1E8EE599E00E940D2060E08EE591
:1054F00099E0DBD94ADD83E399E00E94C41C21E0F6
:1055000044E859E065E979E08DE299E00E943E1DAA
:10551000F3DD61E070E084E197E00E94B40F811157
:1055200001C01FDE2FEF33ED80E32150304080407B
:10553000E1F700C0000062E070E084E197E00E94C3
:10554000B40F8E010F5F1F4F5E01B3948091FA0676
:10555000882349F08091F606811105C08091F706F5
:10556000882309F4C7C4EADDAED770938808609336
:1055700087088BE199E00E941A1FCCDD60938B08AD
:1055800070938C0880938D0890938E0880912801E9
:105590008D3328F088EB99E0E1DC109228018091AE
:1055A0002901882309F4BCC123E238E043E358E031
:1055B00063E178E083E399E00E94E81C63E478E02B
:1055C0008DE299E00E946D1D198223E638E0A80162
:1055D00063E578E082E399E00E94FF1D809108076F
:1055E00090910907A0910A07B0910B078093770863
:1055F00090937808A0937908B0937A0885E899E0A9
:105600000E94B81980938F0885E899E00E949A1942
:105610008093900885E899E00E948D198093910805
:10562000C0901308D0901408E0901508F090160868
:1056300020911708309118084091190850911A08C4
:10564000C701B601CFD687FF08C0C0921708D09215
:105650001808E0921908F0921A0820911B0830915E
:105660001C0840911D0850911E08C701B6010E94F8
:105670004133181644F4C0921B08D0921C08E092E3
:105680001D08F0921E08C0902308D0902408E090D6
:105690002508F0902608209127083091280840918D
:1056A000290850912A08C701B6019CD687FF08C077
:1056B000C0922708D0922808E0922908F0922A0880
:1056C00020912B0830912C0840912D0850912E08E4
:1056D000C701B601D6D7181644F4C0922B08D09251
:1056E0002C08E0922D08F0922E08809133089091BA
:1056F0003408A0913508B091360840913708509190
:1057000038086091390870913A0884179507A60700
:10571000B70740F48093370890933808A09339086E
:10572000B0933A0840913B0850913C0860913D0885
:1057300070913E08481759076A077B0740F4809329
:105740003B0890933C08A0933D08B0933E08C0905E
:105750004308D0904408E0904508F0904608209116
:105760004708309148084091490850914A08C701BC
:10577000B60138D687FF08C0C0924708D0924808C3
:10578000E0924908F0924A0820914B0830914C0869
:1057900040914D0850914E08C701B60172D71816B6
:1057A00044F4C0924B08D0924C08E0924D08F0921D
:1057B0004E08C0905308D0905408E0905508F090DF
:1057C0005608209157083091580840915908509137
:1057D0005A08C701B60106D687FF08C0C09257080D
:1057E000D0925808E0925908F0925A0820915B082C
:1057F00030915C0840915D0850915E08C701B60188
:1058000040D7181644F4C0925B08D0925C08E0922E
:105810005D08F0925E08C0906308D0906408E09044
:105820006508F090660820916708309168084091FB
:10583000690850916A08C701B601D4D587FF08C02E
:10584000C0926708D0926808E0926908F0926A08EE
:1058500020916B0830916C0840916D0850916E0852
:10586000C701B6010ED7181644F4C0926B08D09247
:105870006C08E0926D08F0926E0880917708909124
:105880007808A0917908B0917A0840917B085091EE
:105890007C0860917D0870917E0884179507A607A3
:1058A000B70740F480937B0890937C08A0937D0811
:1058B000B0937E0840917F085091800860918108E4
:1058C00070918208481759076A077B0740F4809354
:1058D0007F0890938008A0938108B093820884E1A8
:1058E00097E00E94D20F8091080790910907A0913C
:1058F0000A07B0910B0784369105A105B10520F088
:10590000A1E0A093F6060AC08091F606882331F044
:105910001092F60660E08AE999E00DDA109229010A
:105920008091FB06882309F427C260918708709153
:10593000880820918B0830918C0840918D085091F7
:105940008E08B0916308C453DE4FB883CC5CD1405D
:10595000409064083090650820906608E0915308F4
:10596000C353DE4FE883CD5CD14070905408609003
:10597000550850905608F0914308C253DE4FF88303
:10598000CE5CD14080914408C153DE4F8883CF5C08
:10599000D140909045088090460890913308C053BC
:1059A000DE4F9883C05DD140D0903408C090350858
:1059B000A0913608CF52DE4FA883C15DD140B0918F
:1059C0008509CA52DE4FB883C65DD140E091860991
:1059D000C952DE4FE883C75DD140F0908709E0905F
:1059E0008809F0911308CE52DE4FF883C25DD14092
:1059F00080911408CD52DE4F8883C35DD1409091D1
:105A00001508CC52DE4F9883C45DD140A091160892
:105A1000CB52DE4FA883C55DD1408091080790919D
:105A20000907A0910A07B0910B07C853DE4F88837E
:105A30009983AA83BB83C85CD14088E0C652DE4FFD
:105A40002883CA5DD140C552DE4F3883CB5DD1403B
:105A5000C452DE4F4883CC5DD140C352DE4F5883E1
:105A6000CD5DD140C852DE4F6883C85DD140C7527A
:105A7000DE4F7883C95DD1400E94841EC752DE4F3D
:105A80007881C95DD1407F93C852DE4F6881C85D7F
:105A9000D1406F93C352DE4F5881CD5DD1405F93AB
:105AA000C452DE4F4881CC5DD1404F93C552DE4F8A
:105AB0003881CB5DD1403F93C652DE4F2881CA5D0D
:105AC000D1402F932F923F924F92C453DE4F2881A3
:105AD000CC5CD1402F935F926F927F92C353DE4F85
